{
  "contractName": "Evaluator",
  "abi": [
    {
      "inputs": [
        {
          "internalType": "contract ERC20TD",
          "name": "_TDERC20",
          "type": "address"
        }
      ],
      "stateMutability": "nonpayable",
      "type": "constructor"
    },
    {
      "anonymous": false,
      "inputs": [
        {
          "indexed": false,
          "internalType": "address",
          "name": "erc20Address",
          "type": "address"
        }
      ],
      "name": "constructedCorrectly",
      "type": "event"
    },
    {
      "anonymous": false,
      "inputs": [
        {
          "indexed": false,
          "internalType": "string",
          "name": "ticker",
          "type": "string"
        },
        {
          "indexed": false,
          "internalType": "uint256",
          "name": "supply",
          "type": "uint256"
        }
      ],
      "name": "newRandomTickerAndSupply",
      "type": "event"
    },
    {
      "stateMutability": "payable",
      "type": "fallback"
    },
    {
      "inputs": [
        {
          "internalType": "address",
          "name": "",
          "type": "address"
        }
      ],
      "name": "assignedSupply",
      "outputs": [
        {
          "internalType": "uint256",
          "name": "",
          "type": "uint256"
        }
      ],
      "stateMutability": "view",
      "type": "function"
    },
    {
      "inputs": [
        {
          "internalType": "address",
          "name": "",
          "type": "address"
        }
      ],
      "name": "assignedTicker",
      "outputs": [
        {
          "internalType": "string",
          "name": "",
          "type": "string"
        }
      ],
      "stateMutability": "view",
      "type": "function"
    },
    {
      "inputs": [
        {
          "internalType": "address",
          "name": "",
          "type": "address"
        }
      ],
      "name": "ex8Tier1AmountBought",
      "outputs": [
        {
          "internalType": "uint256",
          "name": "",
          "type": "uint256"
        }
      ],
      "stateMutability": "view",
      "type": "function"
    },
    {
      "inputs": [
        {
          "internalType": "address",
          "name": "",
          "type": "address"
        },
        {
          "internalType": "uint256",
          "name": "",
          "type": "uint256"
        }
      ],
      "name": "exerciceProgression",
      "outputs": [
        {
          "internalType": "bool",
          "name": "",
          "type": "bool"
        }
      ],
      "stateMutability": "view",
      "type": "function"
    },
    {
      "inputs": [
        {
          "internalType": "address",
          "name": "",
          "type": "address"
        }
      ],
      "name": "hasBeenPaired",
      "outputs": [
        {
          "internalType": "bool",
          "name": "",
          "type": "bool"
        }
      ],
      "stateMutability": "view",
      "type": "function"
    },
    {
      "inputs": [],
      "name": "nextValueStoreRank",
      "outputs": [
        {
          "internalType": "uint256",
          "name": "",
          "type": "uint256"
        }
      ],
      "stateMutability": "view",
      "type": "function"
    },
    {
      "inputs": [
        {
          "internalType": "address",
          "name": "",
          "type": "address"
        }
      ],
      "name": "studentErc20",
      "outputs": [
        {
          "internalType": "contract IExerciceSolution",
          "name": "",
          "type": "address"
        }
      ],
      "stateMutability": "view",
      "type": "function"
    },
    {
      "inputs": [
        {
          "internalType": "address",
          "name": "",
          "type": "address"
        }
      ],
      "name": "teachers",
      "outputs": [
        {
          "internalType": "bool",
          "name": "",
          "type": "bool"
        }
      ],
      "stateMutability": "view",
      "type": "function"
    },
    {
      "stateMutability": "payable",
      "type": "receive"
    },
    {
      "inputs": [],
      "name": "ex1_getTickerAndSupply",
      "outputs": [],
      "stateMutability": "nonpayable",
      "type": "function"
    },
    {
      "inputs": [
        {
          "internalType": "contract IExerciceSolution",
          "name": "erc20ToTest",
          "type": "address"
        }
      ],
      "name": "ex2_testErc20TickerAndSupply",
      "outputs": [],
      "stateMutability": "nonpayable",
      "type": "function"
    },
    {
      "inputs": [],
      "name": "ex3_testGetToken",
      "outputs": [],
      "stateMutability": "nonpayable",
      "type": "function"
    },
    {
      "inputs": [],
      "name": "ex4_testBuyToken",
      "outputs": [],
      "stateMutability": "nonpayable",
      "type": "function"
    },
    {
      "inputs": [],
      "name": "ex5_testDenyListing",
      "outputs": [],
      "stateMutability": "nonpayable",
      "type": "function"
    },
    {
      "inputs": [],
      "name": "ex6_testAllowListing",
      "outputs": [],
      "stateMutability": "nonpayable",
      "type": "function"
    },
    {
      "inputs": [],
      "name": "ex7_testDenyListing",
      "outputs": [],
      "stateMutability": "nonpayable",
      "type": "function"
    },
    {
      "inputs": [],
      "name": "ex8_testTier1Listing",
      "outputs": [],
      "stateMutability": "nonpayable",
      "type": "function"
    },
    {
      "inputs": [],
      "name": "ex9_testTier2Listing",
      "outputs": [],
      "stateMutability": "nonpayable",
      "type": "function"
    },
    {
      "inputs": [
        {
          "internalType": "contract IExerciceSolution",
          "name": "studentExercice",
          "type": "address"
        }
      ],
      "name": "submitExercice",
      "outputs": [],
      "stateMutability": "nonpayable",
      "type": "function"
    },
    {
      "inputs": [
        {
          "internalType": "bytes32",
          "name": "_bytes32",
          "type": "bytes32"
        }
      ],
      "name": "bytes32ToString",
      "outputs": [
        {
          "internalType": "string",
          "name": "",
          "type": "string"
        }
      ],
      "stateMutability": "pure",
      "type": "function"
    },
    {
      "inputs": [
        {
          "internalType": "address",
          "name": "studentAddres",
          "type": "address"
        }
      ],
      "name": "readTicker",
      "outputs": [
        {
          "internalType": "string",
          "name": "",
          "type": "string"
        }
      ],
      "stateMutability": "view",
      "type": "function"
    },
    {
      "inputs": [
        {
          "internalType": "address",
          "name": "studentAddres",
          "type": "address"
        }
      ],
      "name": "readSupply",
      "outputs": [
        {
          "internalType": "uint256",
          "name": "",
          "type": "uint256"
        }
      ],
      "stateMutability": "view",
      "type": "function"
    },
    {
      "inputs": [
        {
          "internalType": "uint256[20]",
          "name": "_randomSupplies",
          "type": "uint256[20]"
        },
        {
          "internalType": "string[20]",
          "name": "_randomTickers",
          "type": "string[20]"
        }
      ],
      "name": "setRandomTickersAndSupply",
      "outputs": [],
      "stateMutability": "nonpayable",
      "type": "function"
    }
  ],
  "bytecode": "0x60806040523480156200001157600080fd5b5060405162004c6a38038062004c6a8339818101604052620000379190810190620000f1565b80600160006101000a81548173ffffffffffffffffffffffffffffffffffffffff021916908373ffffffffffffffffffffffffffffffffffffffff1602179055507f2915b3b4e0613c6b63dca39a375dd8c9f1de68d9e208a0713b7624260e2d0812600160009054906101000a900473ffffffffffffffffffffffffffffffffffffffff16604051620000cb91906200012e565b60405180910390a150620001ad565b600081519050620000eb8162000193565b92915050565b6000602082840312156200010457600080fd5b60006200011484828501620000da565b91505092915050565b62000128816200014b565b82525050565b60006020820190506200014560008301846200011d565b92915050565b6000620001588262000173565b9050919050565b60006200016c826200014b565b9050919050565b600073ffffffffffffffffffffffffffffffffffffffff82169050919050565b6200019e816200015f565b8114620001aa57600080fd5b50565b614aad80620001bd6000396000f3fe6080604052600436106101385760003560e01c8063a6c611d9116100ab578063e22b5dcf1161006f578063e22b5dcf146103cd578063e22ebfd61461040a578063e574486114610447578063ec65b16e14610470578063f0a47f7814610487578063f4fdbb88146104c45761013f565b8063a6c611d914610322578063afda5dc514610339578063b32b559f14610376578063ccd64d7d1461038d578063d1a2e76e146103a45761013f565b806339119dce116100fd57806339119dce146102125780633bc409561461023d5780637db60caf146102545780639201de551461029157806398f02097146102ce5780639f91f516146102e55761013f565b8062a3491a146101415780630af78edc1461017e57806316f4b99f146101955780632236d353146101ac5780632e64c500146101d55761013f565b3661013f57005b005b34801561014d57600080fd5b5061016860048036036101639190810190613f65565b610501565b604051610175919061461e565b60405180910390f35b34801561018a57600080fd5b506101936105b1565b005b3480156101a157600080fd5b506101aa610943565b005b3480156101b857600080fd5b506101d360048036036101ce9190810190614072565b610e0e565b005b3480156101e157600080fd5b506101fc60048036036101f79190810190613f8e565b6111ba565b60405161020991906145e8565b60405180910390f35b34801561021e57600080fd5b506102276111e9565b6040516102349190614792565b60405180910390f35b34801561024957600080fd5b506102526111ef565b005b34801561026057600080fd5b5061027b60048036036102769190810190613f65565b61171a565b6040516102889190614792565b60405180910390f35b34801561029d57600080fd5b506102b860048036036102b39190810190614049565b611732565b6040516102c59190614640565b60405180910390f35b3480156102da57600080fd5b506102e361188f565b005b3480156102f157600080fd5b5061030c60048036036103079190810190613f65565b611ae0565b6040516103199190614792565b60405180910390f35b34801561032e57600080fd5b50610337611b29565b005b34801561034557600080fd5b50610360600480360361035b9190810190613f65565b612045565b60405161036d9190614792565b60405180910390f35b34801561038257600080fd5b5061038b61205d565b005b34801561039957600080fd5b506103a26121c6565b005b3480156103b057600080fd5b506103cb60048036036103c69190810190613fca565b6126a1565b005b3480156103d957600080fd5b506103f460048036036103ef9190810190613f65565b6127f6565b6040516104019190614640565b60405180910390f35b34801561041657600080fd5b50610431600480360361042c9190810190613f65565b6128d7565b60405161043e9190614603565b60405180910390f35b34801561045357600080fd5b5061046e60048036036104699190810190614072565b61290a565b005b34801561047c57600080fd5b5061048561303f565b005b34801561049357600080fd5b506104ae60048036036104a99190810190613f65565b61345e565b6040516104bb91906145e8565b60405180910390f35b3480156104d057600080fd5b506104eb60048036036104e69190810190613f65565b61347e565b6040516104f891906145e8565b60405180910390f35b602b6020528060005260406000206000915090508054600181600116156101000203166002900480601f0160208091040260200160405190810160405280929190818152602001828054600181600116156101000203166002900480156105a95780601f1061057e576101008083540402835291602001916105a9565b820191906000526020600020905b81548152906001019060200180831161058c57829003601f168201915b505050505081565b600073ffffffffffffffffffffffffffffffffffffffff16602e60003373ffffffffffffffffffffffffffffffffffffffff1673ffffffffffffffffffffffffffffffffffffffff16815260200190815260200160002060009054906101000a900473ffffffffffffffffffffffffffffffffffffffff1673ffffffffffffffffffffffffffffffffffffffff161415610680576040517f08c379a000000000000000000000000000000000000000000000000000000000815260040161067790614732565b60405180910390fd5b602d60003373ffffffffffffffffffffffffffffffffffffffff1673ffffffffffffffffffffffffffffffffffffffff16815260200190815260200160002060006005815260200190815260200160002060009054906101000a900460ff166106e857600080fd5b602e60003373ffffffffffffffffffffffffffffffffffffffff1673ffffffffffffffffffffffffffffffffffffffff16815260200190815260200160002060009054906101000a900473ffffffffffffffffffffffffffffffffffffffff1673ffffffffffffffffffffffffffffffffffffffff1663d48a87f1306040518263ffffffff1660e01b81526004016107809190614529565b602060405180830381600087803b15801561079a57600080fd5b505af11580156107ae573d6000803e3d6000fd5b505050506040513d601f19601f820116820180604052506107d29190810190614020565b6107db57600080fd5b6107e36111ef565b602d60003373ffffffffffffffffffffffffffffffffffffffff1673ffffffffffffffffffffffffffffffffffffffff16815260200190815260200160002060006006815260200190815260200160002060009054906101000a900460ff16610941576001602d60003373ffffffffffffffffffffffffffffffffffffffff1673ffffffffffffffffffffffffffffffffffffffff16815260200190815260200160002060006006815260200190815260200160002060006101000a81548160ff021916908315150217905550600160009054906101000a900473ffffffffffffffffffffffffffffffffffffffff1673ffffffffffffffffffffffffffffffffffffffff1663158a49883360026040518363ffffffff1660e01b815260040161090e9291906145bf565b600060405180830381600087803b15801561092857600080fd5b505af115801561093c573d6000803e3d6000fd5b505050505b565b600073ffffffffffffffffffffffffffffffffffffffff16602e60003373ffffffffffffffffffffffffffffffffffffffff1673ffffffffffffffffffffffffffffffffffffffff16815260200190815260200160002060009054906101000a900473ffffffffffffffffffffffffffffffffffffffff1673ffffffffffffffffffffffffffffffffffffffff161415610a12576040517f08c379a0000000000000000000000000000000000000000000000000000000008152600401610a0990614732565b60405180910390fd5b602d60003373ffffffffffffffffffffffffffffffffffffffff1673ffffffffffffffffffffffffffffffffffffffff16815260200190815260200160002060006007815260200190815260200160002060009054906101000a900460ff16610a7a57600080fd5b602e60003373ffffffffffffffffffffffffffffffffffffffff1673ffffffffffffffffffffffffffffffffffffffff16815260200190815260200160002060009054906101000a900473ffffffffffffffffffffffffffffffffffffffff1673ffffffffffffffffffffffffffffffffffffffff1663d48a87f1306040518263ffffffff1660e01b8152600401610b129190614529565b602060405180830381600087803b158015610b2c57600080fd5b505af1158015610b40573d6000803e3d6000fd5b505050506040513d601f19601f82011682018060405250610b649190810190614020565b610b6d57600080fd5b6001602e60003373ffffffffffffffffffffffffffffffffffffffff1673ffffffffffffffffffffffffffffffffffffffff16815260200190815260200160002060009054906101000a900473ffffffffffffffffffffffffffffffffffffffff1673ffffffffffffffffffffffffffffffffffffffff16638dd3fda9306040518263ffffffff1660e01b8152600401610c079190614529565b602060405180830381600087803b158015610c2157600080fd5b505af1158015610c35573d6000803e3d6000fd5b505050506040513d601f19601f82011682018060405250610c5991908101906140dc565b14610c6357600080fd5b610c6b61349e565b602f60003373ffffffffffffffffffffffffffffffffffffffff1673ffffffffffffffffffffffffffffffffffffffff16815260200190815260200160002081905550602d60003373ffffffffffffffffffffffffffffffffffffffff1673ffffffffffffffffffffffffffffffffffffffff16815260200190815260200160002060006008815260200190815260200160002060009054906101000a900460ff16610e0c576001602d60003373ffffffffffffffffffffffffffffffffffffffff1673ffffffffffffffffffffffffffffffffffffffff16815260200190815260200160002060006008815260200190815260200160002060006101000a81548160ff021916908315150217905550600160009054906101000a900473ffffffffffffffffffffffffffffffffffffffff1673ffffffffffffffffffffffffffffffffffffffff1663158a49883360026040518363ffffffff1660e01b8152600401610dd99291906145bf565b600060405180830381600087803b158015610df357600080fd5b505af1158015610e07573d6000803e3d6000fd5b505050505b565b603060008273ffffffffffffffffffffffffffffffffffffffff1673ffffffffffffffffffffffffffffffffffffffff16815260200190815260200160002060009054906101000a900460ff1615610e6557600080fd5b80602e60003373ffffffffffffffffffffffffffffffffffffffff1673ffffffffffffffffffffffffffffffffffffffff16815260200190815260200160002060006101000a81548173ffffffffffffffffffffffffffffffffffffffff021916908373ffffffffffffffffffffffffffffffffffffffff1602179055506001603060008373ffffffffffffffffffffffffffffffffffffffff1673ffffffffffffffffffffffffffffffffffffffff16815260200190815260200160002060006101000a81548160ff021916908315150217905550602d60003373ffffffffffffffffffffffffffffffffffffffff1673ffffffffffffffffffffffffffffffffffffffff168152602001908152602001600020600080815260200190815260200160002060009054906101000a900460ff166111b7576001602d60003373ffffffffffffffffffffffffffffffffffffffff1673ffffffffffffffffffffffffffffffffffffffff168152602001908152602001600020600080815260200190815260200160002060006101000a81548160ff021916908315150217905550600160009054906101000a900473ffffffffffffffffffffffffffffffffffffffff1673ffffffffffffffffffffffffffffffffffffffff1663158a49883360026040518363ffffffff1660e01b81526004016110649291906145bf565b600060405180830381600087803b15801561107e57600080fd5b505af1158015611092573d6000803e3d6000fd5b50505050600160009054906101000a900473ffffffffffffffffffffffffffffffffffffffff1673ffffffffffffffffffffffffffffffffffffffff1663158a49883360026040518363ffffffff1660e01b81526004016110f49291906145bf565b600060405180830381600087803b15801561110e57600080fd5b505af1158015611122573d6000803e3d6000fd5b50505050600160009054906101000a900473ffffffffffffffffffffffffffffffffffffffff1673ffffffffffffffffffffffffffffffffffffffff1663158a49883360016040518363ffffffff1660e01b8152600401611184929190614596565b600060405180830381600087803b15801561119e57600080fd5b505af11580156111b2573d6000803e3d6000fd5b505050505b50565b602d6020528160005260406000206020528060005260406000206000915091509054906101000a900460ff1681565b602a5481565b600073ffffffffffffffffffffffffffffffffffffffff16602e60003373ffffffffffffffffffffffffffffffffffffffff1673ffffffffffffffffffffffffffffffffffffffff16815260200190815260200160002060009054906101000a900473ffffffffffffffffffffffffffffffffffffffff1673ffffffffffffffffffffffffffffffffffffffff1614156112be576040517f08c379a00000000000000000000000000000000000000000000000000000000081526004016112b590614732565b60405180910390fd5b6000602e60003373ffffffffffffffffffffffffffffffffffffffff1673ffffffffffffffffffffffffffffffffffffffff16815260200190815260200160002060009054906101000a900473ffffffffffffffffffffffffffffffffffffffff1673ffffffffffffffffffffffffffffffffffffffff166370a08231306040518263ffffffff1660e01b81526004016113589190614529565b60206040518083038186803b15801561137057600080fd5b505afa158015611384573d6000803e3d6000fd5b505050506040513d601f19601f820116820180604052506113a891908101906140dc565b9050602e60003373ffffffffffffffffffffffffffffffffffffffff1673ffffffffffffffffffffffffffffffffffffffff16815260200190815260200160002060009054906101000a900473ffffffffffffffffffffffffffffffffffffffff1673ffffffffffffffffffffffffffffffffffffffff166321df0da76040518163ffffffff1660e01b8152600401602060405180830381600087803b15801561145157600080fd5b505af1158015611465573d6000803e3d6000fd5b505050506040513d601f19601f820116820180604052506114899190810190614020565b506000602e60003373ffffffffffffffffffffffffffffffffffffffff1673ffffffffffffffffffffffffffffffffffffffff16815260200190815260200160002060009054906101000a900473ffffffffffffffffffffffffffffffffffffffff1673ffffffffffffffffffffffffffffffffffffffff166370a08231306040518263ffffffff1660e01b81526004016115249190614529565b60206040518083038186803b15801561153c57600080fd5b505afa158015611550573d6000803e3d6000fd5b505050506040513d601f19601f8201168201806040525061157491908101906140dc565b90508082106115b8576040517f08c379a00000000000000000000000000000000000000000000000000000000081526004016115af906146d2565b60405180910390fd5b602d60003373ffffffffffffffffffffffffffffffffffffffff1673ffffffffffffffffffffffffffffffffffffffff16815260200190815260200160002060006003815260200190815260200160002060009054906101000a900460ff16611716576001602d60003373ffffffffffffffffffffffffffffffffffffffff1673ffffffffffffffffffffffffffffffffffffffff16815260200190815260200160002060006003815260200190815260200160002060006101000a81548160ff021916908315150217905550600160009054906101000a900473ffffffffffffffffffffffffffffffffffffffff1673ffffffffffffffffffffffffffffffffffffffff1663158a49883360026040518363ffffffff1660e01b81526004016116e39291906145bf565b600060405180830381600087803b1580156116fd57600080fd5b505af1158015611711573d6000803e3d6000fd5b505050505b5050565b602c6020528060005260406000206000915090505481565b606060008090505b60208160ff161080156117855750600060f81b838260ff166020811061175c57fe5b1a60f81b7effffffffffffffffffffffffffffffffffffffffffffffffffffffffffffff191614155b1561179757808060010191505061173a565b60608160ff166040519080825280601f01601f1916602001820160405280156117cf5781602001600182028038833980820191505090505b509050600091505b60208260ff161080156118225750600060f81b848360ff16602081106117f957fe5b1a60f81b7effffffffffffffffffffffffffffffffffffffffffffffffffffffffffffff191614155b1561188557838260ff166020811061183657fe5b1a60f81b818360ff168151811061184957fe5b60200101907effffffffffffffffffffffffffffffffffffffffffffffffffffffffffffff1916908160001a90535081806001019250506117d7565b8092505050919050565b670de0b6b3a76400006002602a54601481106118a757fe5b015402602c60003373ffffffffffffffffffffffffffffffffffffffff1673ffffffffffffffffffffffffffffffffffffffff168152602001908152602001600020819055506016602a54601481106118fc57fe5b01602b60003373ffffffffffffffffffffffffffffffffffffffff1673ffffffffffffffffffffffffffffffffffffffff168152602001908152602001600020908054600181600116156101000203166002900461195b929190613b33565b506001602a600082825401925050819055506014602a5410611980576000602a819055505b602d60003373ffffffffffffffffffffffffffffffffffffffff1673ffffffffffffffffffffffffffffffffffffffff16815260200190815260200160002060006001815260200190815260200160002060009054906101000a900460ff16611ade576001602d60003373ffffffffffffffffffffffffffffffffffffffff1673ffffffffffffffffffffffffffffffffffffffff16815260200190815260200160002060006001815260200190815260200160002060006101000a81548160ff021916908315150217905550600160009054906101000a900473ffffffffffffffffffffffffffffffffffffffff1673ffffffffffffffffffffffffffffffffffffffff1663158a49883360016040518363ffffffff1660e01b8152600401611aab929190614596565b600060405180830381600087803b158015611ac557600080fd5b505af1158015611ad9573d6000803e3d6000fd5b505050505b565b6000602c60008373ffffffffffffffffffffffffffffffffffffffff1673ffffffffffffffffffffffffffffffffffffffff168152602001908152602001600020549050919050565b600073ffffffffffffffffffffffffffffffffffffffff16602e60003373ffffffffffffffffffffffffffffffffffffffff1673ffffffffffffffffffffffffffffffffffffffff16815260200190815260200160002060009054906101000a900473ffffffffffffffffffffffffffffffffffffffff1673ffffffffffffffffffffffffffffffffffffffff161415611bf8576040517f08c379a0000000000000000000000000000000000000000000000000000000008152600401611bef90614732565b60405180910390fd5b602e60003373ffffffffffffffffffffffffffffffffffffffff1673ffffffffffffffffffffffffffffffffffffffff16815260200190815260200160002060009054906101000a900473ffffffffffffffffffffffffffffffffffffffff1673ffffffffffffffffffffffffffffffffffffffff1663d48a87f1306040518263ffffffff1660e01b8152600401611c909190614529565b602060405180830381600087803b158015611caa57600080fd5b505af1158015611cbe573d6000803e3d6000fd5b505050506040513d601f19601f82011682018060405250611ce29190810190614020565b15611cec57600080fd5b6000602e60003373ffffffffffffffffffffffffffffffffffffffff1673ffffffffffffffffffffffffffffffffffffffff16815260200190815260200160002060009054906101000a900473ffffffffffffffffffffffffffffffffffffffff1673ffffffffffffffffffffffffffffffffffffffff16638dd3fda9306040518263ffffffff1660e01b8152600401611d869190614529565b602060405180830381600087803b158015611da057600080fd5b505af1158015611db4573d6000803e3d6000fd5b505050506040513d601f19601f82011682018060405250611dd891908101906140dc565b14611de257600080fd5b600060019050602e60003373ffffffffffffffffffffffffffffffffffffffff1673ffffffffffffffffffffffffffffffffffffffff16815260200190815260200160002060009054906101000a900473ffffffffffffffffffffffffffffffffffffffff1673ffffffffffffffffffffffffffffffffffffffff1663a4821719655af3107a40006040518263ffffffff1660e01b81526004016020604051808303818588803b158015611e9557600080fd5b505af193505050508015611ec757506040513d601f19601f82011682018060405250611ec49190810190614020565b60015b611ed45760009050611ed9565b809150505b8015611ee457600080fd5b602d60003373ffffffffffffffffffffffffffffffffffffffff1673ffffffffffffffffffffffffffffffffffffffff16815260200190815260200160002060006007815260200190815260200160002060009054906101000a900460ff16612042576001602d60003373ffffffffffffffffffffffffffffffffffffffff1673ffffffffffffffffffffffffffffffffffffffff16815260200190815260200160002060006007815260200190815260200160002060006101000a81548160ff021916908315150217905550600160009054906101000a900473ffffffffffffffffffffffffffffffffffffffff1673ffffffffffffffffffffffffffffffffffffffff1663158a49883360016040518363ffffffff1660e01b815260040161200f929190614596565b600060405180830381600087803b15801561202957600080fd5b505af115801561203d573d6000803e3d6000fd5b505050505b50565b602f6020528060005260406000206000915090505481565b61206561349e565b50602d60003373ffffffffffffffffffffffffffffffffffffffff1673ffffffffffffffffffffffffffffffffffffffff16815260200190815260200160002060006004815260200190815260200160002060009054906101000a900460ff166121c4576001602d60003373ffffffffffffffffffffffffffffffffffffffff1673ffffffffffffffffffffffffffffffffffffffff16815260200190815260200160002060006004815260200190815260200160002060006101000a81548160ff021916908315150217905550600160009054906101000a900473ffffffffffffffffffffffffffffffffffffffff1673ffffffffffffffffffffffffffffffffffffffff1663158a49883360026040518363ffffffff1660e01b81526004016121919291906145bf565b600060405180830381600087803b1580156121ab57600080fd5b505af11580156121bf573d6000803e3d6000fd5b505050505b565b600073ffffffffffffffffffffffffffffffffffffffff16602e60003373ffffffffffffffffffffffffffffffffffffffff1673ffffffffffffffffffffffffffffffffffffffff16815260200190815260200160002060009054906101000a900473ffffffffffffffffffffffffffffffffffffffff1673ffffffffffffffffffffffffffffffffffffffff161415612295576040517f08c379a000000000000000000000000000000000000000000000000000000000815260040161228c90614732565b60405180910390fd5b602d60003373ffffffffffffffffffffffffffffffffffffffff1673ffffffffffffffffffffffffffffffffffffffff16815260200190815260200160002060006007815260200190815260200160002060009054906101000a900460ff166122fd57600080fd5b602e60003373ffffffffffffffffffffffffffffffffffffffff1673ffffffffffffffffffffffffffffffffffffffff16815260200190815260200160002060009054906101000a900473ffffffffffffffffffffffffffffffffffffffff1673ffffffffffffffffffffffffffffffffffffffff1663d48a87f1306040518263ffffffff1660e01b81526004016123959190614529565b602060405180830381600087803b1580156123af57600080fd5b505af11580156123c3573d6000803e3d6000fd5b505050506040513d601f19601f820116820180604052506123e79190810190614020565b6123f057600080fd5b6002602e60003373ffffffffffffffffffffffffffffffffffffffff1673ffffffffffffffffffffffffffffffffffffffff16815260200190815260200160002060009054906101000a900473ffffffffffffffffffffffffffffffffffffffff1673ffffffffffffffffffffffffffffffffffffffff16638dd3fda9306040518263ffffffff1660e01b815260040161248a9190614529565b602060405180830381600087803b1580156124a457600080fd5b505af11580156124b8573d6000803e3d6000fd5b505050506040513d601f19601f820116820180604052506124dc91908101906140dc565b146124e657600080fd5b60006124f061349e565b9050602f60003373ffffffffffffffffffffffffffffffffffffffff1673ffffffffffffffffffffffffffffffffffffffff16815260200190815260200160002054600202811461254057600080fd5b602d60003373ffffffffffffffffffffffffffffffffffffffff1673ffffffffffffffffffffffffffffffffffffffff16815260200190815260200160002060006009815260200190815260200160002060009054906101000a900460ff1661269e576001602d60003373ffffffffffffffffffffffffffffffffffffffff1673ffffffffffffffffffffffffffffffffffffffff16815260200190815260200160002060006009815260200190815260200160002060006101000a81548160ff021916908315150217905550600160009054906101000a900473ffffffffffffffffffffffffffffffffffffffff1673ffffffffffffffffffffffffffffffffffffffff1663158a49883360026040518363ffffffff1660e01b815260040161266b9291906145bf565b600060405180830381600087803b15801561268557600080fd5b505af1158015612699573d6000803e3d6000fd5b505050505b50565b600160009054906101000a900473ffffffffffffffffffffffffffffffffffffffff1673ffffffffffffffffffffffffffffffffffffffff1663f0a47f78336040518263ffffffff1660e01b81526004016126fc9190614529565b60206040518083038186803b15801561271457600080fd5b505afa158015612728573d6000803e3d6000fd5b505050506040513d601f19601f8201168201806040525061274c9190810190614020565b61275557600080fd5b816002906014612766929190613bba565b50806016906014612778929190613bfa565b506000602a8190555060008090505b60148110156127f1577fcc783cf5d663570e7c7576cec91f24975b35b957c8dd67766710be25c48cf602601682601481106127be57fe5b01600283601481106127cc57fe5b01546040516127dc929190614662565b60405180910390a18080600101915050612787565b505050565b6060602b60008373ffffffffffffffffffffffffffffffffffffffff1673ffffffffffffffffffffffffffffffffffffffff1681526020019081526020016000208054600181600116156101000203166002900480601f0160208091040260200160405190810160405280929190818152602001828054600181600116156101000203166002900480156128cb5780601f106128a0576101008083540402835291602001916128cb565b820191906000526020600020905b8154815290600101906020018083116128ae57829003601f168201915b50505050509050919050565b602e6020528060005260406000206000915054906101000a900473ffffffffffffffffffffffffffffffffffffffff1681565b602d60003373ffffffffffffffffffffffffffffffffffffffff1673ffffffffffffffffffffffffffffffffffffffff16815260200190815260200160002060006001815260200190815260200160002060009054906101000a900460ff1661297257600080fd5b602d60003373ffffffffffffffffffffffffffffffffffffffff1673ffffffffffffffffffffffffffffffffffffffff168152602001908152602001600020600080815260200190815260200160002060009054906101000a900460ff166129d957600080fd5b612b3c602b60003373ffffffffffffffffffffffffffffffffffffffff1673ffffffffffffffffffffffffffffffffffffffff1681526020019081526020016000208054600181600116156101000203166002900480601f016020809104026020016040519081016040528092919081815260200182805460018160011615610100020316600290048015612aaf5780601f10612a8457610100808354040283529160200191612aaf565b820191906000526020600020905b815481529060010190602001808311612a9257829003601f168201915b50505050508273ffffffffffffffffffffffffffffffffffffffff166395d89b416040518163ffffffff1660e01b815260040160006040518083038186803b158015612afa57600080fd5b505afa158015612b0e573d6000803e3d6000fd5b505050506040513d6000823e3d601f19601f82011682018060405250612b37919081019061409b565b613ada565b612b7b576040517f08c379a0000000000000000000000000000000000000000000000000000000008152600401612b72906146b2565b60405180910390fd5b8073ffffffffffffffffffffffffffffffffffffffff166318160ddd6040518163ffffffff1660e01b815260040160206040518083038186803b158015612bc157600080fd5b505afa158015612bd5573d6000803e3d6000fd5b505050506040513d601f19601f82011682018060405250612bf991908101906140dc565b602c60003373ffffffffffffffffffffffffffffffffffffffff1673ffffffffffffffffffffffffffffffffffffffff1681526020019081526020016000205414612c79576040517f08c379a0000000000000000000000000000000000000000000000000000000008152600401612c7090614752565b60405180910390fd5b60008173ffffffffffffffffffffffffffffffffffffffff1663dd62ed3e30336040518363ffffffff1660e01b8152600401612cb6929190614544565b60206040518083038186803b158015612cce57600080fd5b505afa158015612ce2573d6000803e3d6000fd5b505050506040513d601f19601f82011682018060405250612d0691908101906140dc565b14612d46576040517f08c379a0000000000000000000000000000000000000000000000000000000008152600401612d3d90614772565b60405180910390fd5b60008173ffffffffffffffffffffffffffffffffffffffff166370a08231306040518263ffffffff1660e01b8152600401612d819190614529565b60206040518083038186803b158015612d9957600080fd5b505afa158015612dad573d6000803e3d6000fd5b505050506040513d601f19601f82011682018060405250612dd191908101906140dc565b14612e11576040517f08c379a0000000000000000000000000000000000000000000000000000000008152600401612e08906146f2565b60405180910390fd5b8073ffffffffffffffffffffffffffffffffffffffff1663095ea7b333600a6040518363ffffffff1660e01b8152600401612e4d92919061456d565b602060405180830381600087803b158015612e6757600080fd5b505af1158015612e7b573d6000803e3d6000fd5b505050506040513d601f19601f82011682018060405250612e9f9190810190614020565b612ede576040517f08c379a0000000000000000000000000000000000000000000000000000000008152600401612ed590614692565b60405180910390fd5b602d60003373ffffffffffffffffffffffffffffffffffffffff1673ffffffffffffffffffffffffffffffffffffffff16815260200190815260200160002060006002815260200190815260200160002060009054906101000a900460ff1661303c576001602d60003373ffffffffffffffffffffffffffffffffffffffff1673ffffffffffffffffffffffffffffffffffffffff16815260200190815260200160002060006002815260200190815260200160002060006101000a81548160ff021916908315150217905550600160009054906101000a900473ffffffffffffffffffffffffffffffffffffffff1673ffffffffffffffffffffffffffffffffffffffff1663158a49883360026040518363ffffffff1660e01b81526004016130099291906145bf565b600060405180830381600087803b15801561302357600080fd5b505af1158015613037573d6000803e3d6000fd5b505050505b50565b600073ffffffffffffffffffffffffffffffffffffffff16602e60003373ffffffffffffffffffffffffffffffffffffffff1673ffffffffffffffffffffffffffffffffffffffff16815260200190815260200160002060009054906101000a900473ffffffffffffffffffffffffffffffffffffffff1673ffffffffffffffffffffffffffffffffffffffff16141561310e576040517f08c379a000000000000000000000000000000000000000000000000000000000815260040161310590614732565b60405180910390fd5b602e60003373ffffffffffffffffffffffffffffffffffffffff1673ffffffffffffffffffffffffffffffffffffffff16815260200190815260200160002060009054906101000a900473ffffffffffffffffffffffffffffffffffffffff1673ffffffffffffffffffffffffffffffffffffffff1663d48a87f1306040518263ffffffff1660e01b81526004016131a69190614529565b602060405180830381600087803b1580156131c057600080fd5b505af11580156131d4573d6000803e3d6000fd5b505050506040513d601f19601f820116820180604052506131f89190810190614020565b1561320257600080fd5b600060019050602e60003373ffffffffffffffffffffffffffffffffffffffff1673ffffffffffffffffffffffffffffffffffffffff16815260200190815260200160002060009054906101000a900473ffffffffffffffffffffffffffffffffffffffff1673ffffffffffffffffffffffffffffffffffffffff166321df0da76040518163ffffffff1660e01b8152600401602060405180830381600087803b1580156132af57600080fd5b505af19250505080156132e057506040513d601f19601f820116820180604052506132dd9190810190614020565b60015b6132ed57600090506132f2565b809150505b80156132fd57600080fd5b602d60003373ffffffffffffffffffffffffffffffffffffffff1673ffffffffffffffffffffffffffffffffffffffff16815260200190815260200160002060006005815260200190815260200160002060009054906101000a900460ff1661345b576001602d60003373ffffffffffffffffffffffffffffffffffffffff1673ffffffffffffffffffffffffffffffffffffffff16815260200190815260200160002060006005815260200190815260200160002060006101000a81548160ff021916908315150217905550600160009054906101000a900473ffffffffffffffffffffffffffffffffffffffff1673ffffffffffffffffffffffffffffffffffffffff1663158a49883360016040518363ffffffff1660e01b8152600401613428929190614596565b600060405180830381600087803b15801561344257600080fd5b505af1158015613456573d6000803e3d6000fd5b505050505b50565b60006020528060005260406000206000915054906101000a900460ff1681565b60306020528060005260406000206000915054906101000a900460ff1681565b60008073ffffffffffffffffffffffffffffffffffffffff16602e60003373ffffffffffffffffffffffffffffffffffffffff1673ffffffffffffffffffffffffffffffffffffffff16815260200190815260200160002060009054906101000a900473ffffffffffffffffffffffffffffffffffffffff1673ffffffffffffffffffffffffffffffffffffffff16141561356e576040517f08c379a000000000000000000000000000000000000000000000000000000000815260040161356590614732565b60405180910390fd5b6000602e60003373ffffffffffffffffffffffffffffffffffffffff1673ffffffffffffffffffffffffffffffffffffffff16815260200190815260200160002060009054906101000a900473ffffffffffffffffffffffffffffffffffffffff1673ffffffffffffffffffffffffffffffffffffffff166370a08231306040518263ffffffff1660e01b81526004016136089190614529565b60206040518083038186803b15801561362057600080fd5b505afa158015613634573d6000803e3d6000fd5b505050506040513d601f19601f8201168201806040525061365891908101906140dc565b9050602e60003373ffffffffffffffffffffffffffffffffffffffff1673ffffffffffffffffffffffffffffffffffffffff16815260200190815260200160002060009054906101000a900473ffffffffffffffffffffffffffffffffffffffff1673ffffffffffffffffffffffffffffffffffffffff1663a4821719655af3107a40006040518263ffffffff1660e01b81526004016020604051808303818588803b15801561370757600080fd5b505af115801561371b573d6000803e3d6000fd5b50505050506040513d601f19601f820116820180604052506137409190810190614020565b506000602e60003373ffffffffffffffffffffffffffffffffffffffff1673ffffffffffffffffffffffffffffffffffffffff16815260200190815260200160002060009054906101000a900473ffffffffffffffffffffffffffffffffffffffff1673ffffffffffffffffffffffffffffffffffffffff166370a08231306040518263ffffffff1660e01b81526004016137db9190614529565b60206040518083038186803b1580156137f357600080fd5b505afa158015613807573d6000803e3d6000fd5b505050506040513d601f19601f8201168201806040525061382b91908101906140dc565b905080821061386f576040517f08c379a0000000000000000000000000000000000000000000000000000000008152600401613866906146d2565b60405180910390fd5b8181039250602e60003373ffffffffffffffffffffffffffffffffffffffff1673ffffffffffffffffffffffffffffffffffffffff16815260200190815260200160002060009054906101000a900473ffffffffffffffffffffffffffffffffffffffff1673ffffffffffffffffffffffffffffffffffffffff1663a4821719660110d9316ec0006040518263ffffffff1660e01b81526004016020604051808303818588803b15801561392257600080fd5b505af1158015613936573d6000803e3d6000fd5b50505050506040513d601f19601f8201168201806040525061395b9190810190614020565b506000602e60003373ffffffffffffffffffffffffffffffffffffffff1673ffffffffffffffffffffffffffffffffffffffff16815260200190815260200160002060009054906101000a900473ffffffffffffffffffffffffffffffffffffffff1673ffffffffffffffffffffffffffffffffffffffff166370a08231306040518263ffffffff1660e01b81526004016139f69190614529565b60206040518083038186803b158015613a0e57600080fd5b505afa158015613a22573d6000803e3d6000fd5b505050506040513d601f19601f82011682018060405250613a4691908101906140dc565b9050808210613a8a576040517f08c379a0000000000000000000000000000000000000000000000000000000008152600401613a81906146d2565b60405180910390fd5b60008282039050848111613ad3576040517f08c379a0000000000000000000000000000000000000000000000000000000008152600401613aca90614712565b60405180910390fd5b5050505090565b600081604051602001613aed9190614512565b6040516020818303038152906040528051906020012083604051602001613b149190614512565b6040516020818303038152906040528051906020012014905092915050565b828054600181600116156101000203166002900490600052602060002090601f016020900481019282601f10613b6c5780548555613ba9565b82800160010185558215613ba957600052602060002091601f016020900482015b82811115613ba8578254825591600101919060010190613b8d565b5b509050613bb69190613c4d565b5090565b8260148101928215613be9579160200282015b82811115613be8578251825591602001919060010190613bcd565b5b509050613bf69190613c4d565b5090565b8260148101928215613c3c579160200282015b82811115613c3b578251829080519060200190613c2b929190613c72565b5091602001919060010190613c0d565b5b509050613c499190613cf2565b5090565b613c6f91905b80821115613c6b576000816000905550600101613c53565b5090565b90565b828054600181600116156101000203166002900490600052602060002090601f016020900481019282601f10613cb357805160ff1916838001178555613ce1565b82800160010185558215613ce1579182015b82811115613ce0578251825591602001919060010190613cc5565b5b509050613cee9190613c4d565b5090565b613d1b91905b80821115613d175760008181613d0e9190613d1e565b50600101613cf8565b5090565b90565b50805460018160011615610100020316600290046000825580601f10613d445750613d63565b601f016020900490600052602060002090810190613d629190613c4d565b5b50565b600081359050613d7581614a04565b92915050565b600082601f830112613d8c57600080fd5b6014613d9f613d9a826147da565b6147ad565b9150818360005b83811015613dd65781358601613dbc8882613e93565b845260208401935060208301925050600181019050613da6565b5050505092915050565b600082601f830112613df157600080fd5b6014613e04613dff826147fc565b6147ad565b91508183856020840282011115613e1a57600080fd5b60005b83811015613e4a5781613e308882613f3b565b845260208401935060208301925050600181019050613e1d565b5050505092915050565b600081519050613e6381614a1b565b92915050565b600081359050613e7881614a32565b92915050565b600081359050613e8d81614a49565b92915050565b600082601f830112613ea457600080fd5b8135613eb7613eb28261481e565b6147ad565b91508082526020830160208301858383011115613ed357600080fd5b613ede8382846149b1565b50505092915050565b600082601f830112613ef857600080fd5b8151613f0b613f068261484a565b6147ad565b91508082526020830160208301858383011115613f2757600080fd5b613f328382846149c0565b50505092915050565b600081359050613f4a81614a60565b92915050565b600081519050613f5f81614a60565b92915050565b600060208284031215613f7757600080fd5b6000613f8584828501613d66565b91505092915050565b60008060408385031215613fa157600080fd5b6000613faf85828601613d66565b9250506020613fc085828601613f3b565b9150509250929050565b6000806102a08385031215613fde57600080fd5b6000613fec85828601613de0565b92505061028083013567ffffffffffffffff81111561400a57600080fd5b61401685828601613d7b565b9150509250929050565b60006020828403121561403257600080fd5b600061404084828501613e54565b91505092915050565b60006020828403121561405b57600080fd5b600061406984828501613e69565b91505092915050565b60006020828403121561408457600080fd5b600061409284828501613e7e565b91505092915050565b6000602082840312156140ad57600080fd5b600082015167ffffffffffffffff8111156140c757600080fd5b6140d384828501613ee7565b91505092915050565b6000602082840312156140ee57600080fd5b60006140fc84828501613f50565b91505092915050565b61410e81614921565b82525050565b61411d816148cf565b82525050565b61412c81614933565b82525050565b61413b81614957565b82525050565b61414a81614969565b82525050565b6141598161497b565b82525050565b600061416a82614896565b61417481856148a1565b93506141848185602086016149c0565b61418d816149f3565b840191505092915050565b60006141a382614896565b6141ad81856148b2565b93506141bd8185602086016149c0565b80840191505092915050565b60006141d48261488b565b6141de81856148a1565b93506141ee8185602086016149c0565b6141f7816149f3565b840191505092915050565b60008154600181166000811461421f576001811461424557614289565b607f600283041661423081876148a1565b955060ff198316865260208601935050614289565b6002820461425381876148a1565b955061425e85614876565b60005b8281101561428057815481890152600182019150602081019050614261565b80880195505050505b505092915050565b600061429e6017836148a1565b91507f417070726f7665206e6f7420696d706c656d656e7465640000000000000000006000830152602082019050919050565b60006142de6010836148a1565b91507f496e636f7272656374207469636b6572000000000000000000000000000000006000830152602082019050919050565b600061431e601e836148a1565b91507f546f6b656e2062616c616e636520646964206e6f7420696e63726561736500006000830152602082019050919050565b600061435e602c836148a1565b91507f42616c616e63654f66206e6f7420696d706c656d656e746564206f7220696e6360008301527f6f72726563746c792073657400000000000000000000000000000000000000006020830152604082019050919050565b60006143c46022836148a1565b91507f5365636f6e642062757920616d6f756e74206c6f776572207468616e2066697260008301527f73740000000000000000000000000000000000000000000000000000000000006020830152604082019050919050565b600061442a601c836148a1565b91507f53747564656e74204552433230206e6f742072656769737465726564000000006000830152602082019050919050565b600061446a6010836148a1565b91507f496e636f727265637420737570706c79000000000000000000000000000000006000830152602082019050919050565b60006144aa602c836148a1565b91507f416c6c6f77616e6365206e6f7420696d706c656d656e746564206f7220696e6360008301527f6f72726563746c792073657400000000000000000000000000000000000000006020830152604082019050919050565b61450c81614917565b82525050565b600061451e8284614198565b915081905092915050565b600060208201905061453e6000830184614105565b92915050565b60006040820190506145596000830185614105565b6145666020830184614105565b9392505050565b60006040820190506145826000830185614105565b61458f6020830184614132565b9392505050565b60006040820190506145ab6000830185614105565b6145b86020830184614141565b9392505050565b60006040820190506145d46000830185614105565b6145e16020830184614150565b9392505050565b60006020820190506145fd6000830184614114565b92915050565b60006020820190506146186000830184614123565b92915050565b6000602082019050818103600083015261463881846141c9565b905092915050565b6000602082019050818103600083015261465a818461415f565b905092915050565b6000604082019050818103600083015261467c8185614202565b905061468b6020830184614503565b9392505050565b600060208201905081810360008301526146ab81614291565b9050919050565b600060208201905081810360008301526146cb816142d1565b9050919050565b600060208201905081810360008301526146eb81614311565b9050919050565b6000602082019050818103600083015261470b81614351565b9050919050565b6000602082019050818103600083015261472b816143b7565b9050919050565b6000602082019050818103600083015261474b8161441d565b9050919050565b6000602082019050818103600083015261476b8161445d565b9050919050565b6000602082019050818103600083015261478b8161449d565b9050919050565b60006020820190506147a76000830184614503565b92915050565b6000604051905081810181811067ffffffffffffffff821117156147d057600080fd5b8060405250919050565b600067ffffffffffffffff8211156147f157600080fd5b602082029050919050565b600067ffffffffffffffff82111561481357600080fd5b602082029050919050565b600067ffffffffffffffff82111561483557600080fd5b601f19601f8301169050602081019050919050565b600067ffffffffffffffff82111561486157600080fd5b601f19601f8301169050602081019050919050565b60008190508160005260206000209050919050565b600081519050919050565b600081519050919050565b600082825260208201905092915050565b600081905092915050565b60006148c8826148f7565b9050919050565b60008115159050919050565b6000819050919050565b60006148f0826148bd565b9050919050565b600073ffffffffffffffffffffffffffffffffffffffff82169050919050565b6000819050919050565b600061492c8261498d565b9050919050565b600061493e82614945565b9050919050565b6000614950826148f7565b9050919050565b600061496282614917565b9050919050565b600061497482614917565b9050919050565b600061498682614917565b9050919050565b60006149988261499f565b9050919050565b60006149aa826148f7565b9050919050565b82818337600083830152505050565b60005b838110156149de5780820151818401526020810190506149c3565b838111156149ed576000848401525b50505050565b6000601f19601f8301169050919050565b614a0d816148bd565b8114614a1857600080fd5b50565b614a24816148cf565b8114614a2f57600080fd5b50565b614a3b816148db565b8114614a4657600080fd5b50565b614a52816148e5565b8114614a5d57600080fd5b50565b614a6981614917565b8114614a7457600080fd5b5056fea26469706673582212202bd2adf4e287114b832646e17b0be38e9ae39d3f5647c75782da585078400a6164736f6c63430006020033",
  "source": "pragma solidity ^0.6.0;\r\npragma experimental ABIEncoderV2;\r\n\r\nimport \"./ERC20TD.sol\";\r\nimport \"./IExerciceSolution.sol\";\r\n\r\ncontract Evaluator \r\n{\r\n\r\n\tmapping(address => bool) public teachers;\r\n\tERC20TD TDERC20;\r\n\r\n\tuint256[20] private randomSupplies;\r\n\tstring[20] private randomTickers;\r\n \tuint public nextValueStoreRank;\r\n\r\n \tmapping(address => string) public assignedTicker;\r\n \tmapping(address => uint256) public assignedSupply;\r\n \tmapping(address => mapping(uint256 => bool)) public exerciceProgression;\r\n \tmapping(address => IExerciceSolution) public studentErc20;\r\n \tmapping(address => uint256) public ex8Tier1AmountBought;\r\n \tmapping(address => bool) public hasBeenPaired;\r\n\r\n \tevent newRandomTickerAndSupply(string ticker, uint256 supply);\r\n \tevent constructedCorrectly(address erc20Address);\r\n\tconstructor(ERC20TD _TDERC20) \r\n\tpublic \r\n\t{\r\n\t\tTDERC20 = _TDERC20;\r\n\t\temit constructedCorrectly(address(TDERC20));\r\n\r\n\t}\r\n\r\n\tfallback () external payable \r\n\t{}\r\n\r\n\treceive () external payable \r\n\t{}\r\n\r\n\r\n\tfunction ex1_getTickerAndSupply()\r\n\tpublic\r\n\t{\r\n\t\tassignedSupply[msg.sender] = randomSupplies[nextValueStoreRank]*1000000000000000000;\r\n\t\t// assignedTicker[msg.sender] = bytes32ToString(randomTickers[nextValueStoreRank]);\r\n\t\tassignedTicker[msg.sender] = randomTickers[nextValueStoreRank];\r\n\r\n\t\tnextValueStoreRank += 1;\r\n\t\tif (nextValueStoreRank >= 20)\r\n\t\t{\r\n\t\t\tnextValueStoreRank = 0;\r\n\t\t}\r\n\r\n\t\t// Crediting points\r\n\t\tif (!exerciceProgression[msg.sender][1])\r\n\t\t{\r\n\t\t\texerciceProgression[msg.sender][1] = true;\r\n\t\t\tTDERC20.distributeTokens(msg.sender, 1);\r\n\t\t}\r\n\t}\r\n\r\n\tfunction ex2_testErc20TickerAndSupply(IExerciceSolution erc20ToTest)\r\n\tpublic\r\n\t{\r\n\t\t// Checking ticker and supply were received\r\n\t\trequire(exerciceProgression[msg.sender][1]);\r\n\r\n\t\t// Checking exercice was submitted\r\n\t\trequire(exerciceProgression[msg.sender][0]);\r\n\r\n\t\t// Checking ticker was set properly\r\n\t\trequire(_compareStrings(assignedTicker[msg.sender], erc20ToTest.symbol()), \"Incorrect ticker\");\r\n\t\t// Checking supply was set properly\r\n\t\trequire(assignedSupply[msg.sender] == erc20ToTest.totalSupply(), \"Incorrect supply\");\r\n\t\t// Checking some ERC20 functions were created\r\n\t\trequire(erc20ToTest.allowance(address(this), msg.sender) == 0, \"Allowance not implemented or incorrectly set\");\r\n\t\trequire(erc20ToTest.balanceOf(address(this)) == 0, \"BalanceOf not implemented or incorrectly set\");\r\n\t\trequire(erc20ToTest.approve(msg.sender, 10), \"Approve not implemented\");\r\n\r\n\t\t// Crediting points\r\n\t\tif (!exerciceProgression[msg.sender][2])\r\n\t\t{\r\n\t\t\texerciceProgression[msg.sender][2] = true;\r\n\t\t\t// Creating ERC20\r\n\t\t\tTDERC20.distributeTokens(msg.sender, 2);\r\n\t\t}\r\n\r\n\t}\r\n\r\n\tfunction ex3_testGetToken()\r\n\tpublic\r\n\t{\r\n\t\t// Checking ERC20 was created\r\n\t\trequire(address(studentErc20[msg.sender]) != address(0), \"Student ERC20 not registered\");\r\n\r\n\t\t// Retrieving initial balance\r\n\t\tuint256 initialBalance = studentErc20[msg.sender].balanceOf(address(this));\r\n\r\n\t\t// Call getToken\r\n\t\tstudentErc20[msg.sender].getToken();\r\n\r\n\t\t// Retrieving final balance\r\n\t\tuint256 finalBalance = studentErc20[msg.sender].balanceOf(address(this));\r\n\r\n\t\trequire(initialBalance < finalBalance, \"Token balance did not increase\");\r\n\r\n\t\tif (!exerciceProgression[msg.sender][3])\r\n\t\t{\r\n\t\t\texerciceProgression[msg.sender][3] = true;\r\n\t\t\t// Distribute points\r\n\t\t\tTDERC20.distributeTokens(msg.sender, 2);\r\n\r\n\t\t}\r\n\t}\r\n\r\n\tfunction ex4_testBuyToken()\r\n\tpublic\r\n\t{\r\n\r\n\t\t_testBuyToken();\r\n\r\n\t\tif (!exerciceProgression[msg.sender][4])\r\n\t\t{\r\n\t\t\texerciceProgression[msg.sender][4] = true;\r\n\t\t\t// Distribute points\r\n\t\t\tTDERC20.distributeTokens(msg.sender, 2);\r\n\t\t}\r\n\t}\r\n\r\n\tfunction ex5_testDenyListing()\r\n\tpublic\r\n\t{\r\n\t\t// Checking ERC20 was created\r\n\t\trequire(address(studentErc20[msg.sender]) != address(0), \"Student ERC20 not registered\");\r\n\r\n\t\trequire(!studentErc20[msg.sender].isCustomerWhiteListed(address(this)));\r\n\r\n\t\tbool wasBuyAccepted = true;\r\n\t\ttry studentErc20[msg.sender].getToken() returns (bool v) \r\n\t\t{\r\n\t\t\twasBuyAccepted = v;\r\n        } \r\n        catch \r\n        {\r\n            // This is executed in case revert() was used.\r\n            wasBuyAccepted = false;\r\n        }\r\n\r\n        require(!wasBuyAccepted);\r\n\r\n        if (!exerciceProgression[msg.sender][5])\r\n\t\t{\r\n\t\t\texerciceProgression[msg.sender][5] = true;\r\n\t\t\t// Distribute points\r\n\t\t\tTDERC20.distributeTokens(msg.sender, 1);\r\n\t\t}\r\n\t}\r\n\r\n\tfunction ex6_testAllowListing()\r\n\tpublic\r\n\t{\r\n\t\t// Checking ERC20 was created\r\n\t\trequire(address(studentErc20[msg.sender]) != address(0), \"Student ERC20 not registered\");\r\n\t\t// Checking ex5 was done\r\n\t\trequire(exerciceProgression[msg.sender][5]);\r\n\r\n\t\t// Check if the current contract is whitelisted\r\n\t\trequire(studentErc20[msg.sender].isCustomerWhiteListed(address(this)));\r\n\r\n\t\t// Trying to buy\r\n\t\tex3_testGetToken();\r\n\r\n        if (!exerciceProgression[msg.sender][6])\r\n\t\t{\r\n\t\t\texerciceProgression[msg.sender][6] = true;\r\n\t\t\t// Distribute points\r\n\t\t\tTDERC20.distributeTokens(msg.sender, 2);\r\n\t\t}\r\n\t}\r\n\r\n\tfunction ex7_testDenyListing()\r\n\tpublic\r\n\t{\r\n\t\t// Checking ERC20 was created\r\n\t\trequire(address(studentErc20[msg.sender]) != address(0), \"Student ERC20 not registered\");\r\n\r\n\t\trequire(!studentErc20[msg.sender].isCustomerWhiteListed(address(this)));\r\n\r\n\t\trequire(studentErc20[msg.sender].customerTierLevel(address(this)) == 0);\r\n\r\n\t\tbool wasBuyAccepted = true;\r\n\t\ttry studentErc20[msg.sender].buyToken.value(0.0001 ether)() returns (bool v) \r\n\t\t{\r\n\t\t\twasBuyAccepted = v;\r\n        } \r\n        catch \r\n        {\r\n            // This is executed in case revert() was used.\r\n            wasBuyAccepted = false;\r\n        }\r\n\r\n        require(!wasBuyAccepted);\r\n\r\n        if (!exerciceProgression[msg.sender][7])\r\n\t\t{\r\n\t\t\texerciceProgression[msg.sender][7] = true;\r\n\t\t\t// Distribute points\r\n\t\t\tTDERC20.distributeTokens(msg.sender, 1);\r\n\t\t}\r\n\t}\r\n\r\n\tfunction ex8_testTier1Listing()\r\n\tpublic\r\n\t{\r\n\t\t// Checking ERC20 was created\r\n\t\trequire(address(studentErc20[msg.sender]) != address(0), \"Student ERC20 not registered\");\r\n\t\t// Checking ex7 was done\r\n\t\trequire(exerciceProgression[msg.sender][7]);\r\n\r\n\t\t// Check if the current contract is whitelisted\r\n\t\trequire(studentErc20[msg.sender].isCustomerWhiteListed(address(this)));\r\n\r\n\t\t// Check if the current contract has the correct tier level\r\n\t\trequire(studentErc20[msg.sender].customerTierLevel(address(this)) == 1);\r\n\r\n\t\t// Trying to buy\r\n\t\tex8Tier1AmountBought[msg.sender] = _testBuyToken();\r\n\r\n        if (!exerciceProgression[msg.sender][8])\r\n\t\t{\r\n\t\t\texerciceProgression[msg.sender][8] = true;\r\n\t\t\t// Distribute points\r\n\t\t\tTDERC20.distributeTokens(msg.sender, 2);\r\n\t\t}\r\n\t}\r\n\r\n\tfunction ex9_testTier2Listing()\r\n\tpublic\r\n\t{\r\n\t\t// Checking ERC20 was created\r\n\t\trequire(address(studentErc20[msg.sender]) != address(0), \"Student ERC20 not registered\");\r\n\t\t// Checking ex7 was done\r\n\t\trequire(exerciceProgression[msg.sender][7]);\r\n\r\n\t\t// Check if the current contract is whitelisted\r\n\t\trequire(studentErc20[msg.sender].isCustomerWhiteListed(address(this)));\r\n\r\n\t\t// Check if the current contract has the correct tier level\r\n\t\trequire(studentErc20[msg.sender].customerTierLevel(address(this)) == 2);\r\n\r\n\t\t// Trying to buy\r\n\t\tuint256 tier2AmountBought = _testBuyToken();\r\n\r\n\t\t// Checking that bought amount is twice what was bought before, for the same price\r\n\t\trequire(tier2AmountBought == 2 * ex8Tier1AmountBought[msg.sender]);\r\n\r\n\r\n        if (!exerciceProgression[msg.sender][9])\r\n\t\t{\r\n\t\t\texerciceProgression[msg.sender][9] = true;\r\n\t\t\t// Distribute points\r\n\t\t\tTDERC20.distributeTokens(msg.sender, 2);\r\n\t\t}\r\n\t}\r\n\r\n\r\n\t/* Internal functions and modifiers */ \r\n\r\n\r\n\tmodifier onlyTeachers() \r\n\t{\r\n\r\n\t    require(TDERC20.teachers(msg.sender));\r\n\t    _;\r\n\t}\r\n\r\n\tfunction submitExercice(IExerciceSolution studentExercice)\r\n\tpublic\r\n\t{\r\n\t\t// Checking this contract was not used by another group before\r\n\t\trequire(!hasBeenPaired[address(studentExercice)]);\r\n\r\n\t\t// Assigning passed ERC20 as student ERC20\r\n\t\tstudentErc20[msg.sender] = studentExercice;\r\n\t\thasBeenPaired[address(studentExercice)] = true;\r\n\t\tif (!exerciceProgression[msg.sender][0])\r\n\t\t{\r\n\t\t\texerciceProgression[msg.sender][0] = true;\r\n\t\t\t// Setup points\r\n\t\t\tTDERC20.distributeTokens(msg.sender, 2);\r\n\t\t\t// Creating contract points\r\n\t\t\tTDERC20.distributeTokens(msg.sender, 2);\r\n\t\t\t// Deploying contract points\r\n\t\t\tTDERC20.distributeTokens(msg.sender, 1);\r\n\t\t}\r\n\t\t\t\r\n\t}\r\n\r\n\tfunction _compareStrings(string memory a, string memory b) \r\n\tinternal \r\n\tpure \r\n\treturns (bool) \r\n\t{\r\n    \treturn (keccak256(abi.encodePacked((a))) == keccak256(abi.encodePacked((b))));\r\n\t}\r\n\r\n\tfunction bytes32ToString(bytes32 _bytes32) \r\n\tpublic \r\n\tpure returns (string memory) \r\n\t{\r\n        uint8 i = 0;\r\n        while(i < 32 && _bytes32[i] != 0) {\r\n            i++;\r\n        }\r\n        bytes memory bytesArray = new bytes(i);\r\n        for (i = 0; i < 32 && _bytes32[i] != 0; i++) {\r\n            bytesArray[i] = _bytes32[i];\r\n        }\r\n        return string(bytesArray);\r\n    }\r\n\r\n\tfunction _testBuyToken()\r\n\tinternal\r\n\treturns(uint256 firstBuyAmount)\r\n\t{\r\n\t\t\t\t// Checking ERC20 was created\r\n\t\trequire(address(studentErc20[msg.sender]) != address(0), \"Student ERC20 not registered\");\r\n\r\n\t\t// Retrieving initial balance\r\n\t\tuint256 initialBalance = studentErc20[msg.sender].balanceOf(address(this));\r\n\r\n\t\t// Call buyToken\r\n\t\tstudentErc20[msg.sender].buyToken.value(0.0001 ether)();\r\n\r\n\t\t// Retrieving intermediate balance\r\n\t\tuint256 intermediateBalance = studentErc20[msg.sender].balanceOf(address(this));\r\n\r\n\t\trequire(initialBalance < intermediateBalance, \"Token balance did not increase\");\r\n\r\n\t\tfirstBuyAmount = intermediateBalance - initialBalance;\r\n\r\n\t\t// Call buyToken again\r\n\t\tstudentErc20[msg.sender].buyToken.value(0.0003 ether)();\r\n\r\n\t\t// Retrieving final balance\r\n\t\tuint256 finalBalance = studentErc20[msg.sender].balanceOf(address(this));\r\n\r\n\t\trequire(intermediateBalance < finalBalance, \"Token balance did not increase\");\r\n\r\n\t\tuint256 secondBuyAmount = finalBalance - intermediateBalance;\r\n\r\n\t\t// Check that second buy amount was a different amount that first buy amount\r\n\r\n\t\trequire(secondBuyAmount > firstBuyAmount, \"Second buy amount lower than first\");\r\n\t}\r\n\r\n\tfunction readTicker(address studentAddres)\r\n\tpublic\r\n\tview\r\n\treturns(string memory)\r\n\t{\r\n\t\treturn assignedTicker[studentAddres];\r\n\t}\r\n\r\n\tfunction readSupply(address studentAddres)\r\n\tpublic\r\n\tview\r\n\treturns(uint256)\r\n\t{\r\n\t\treturn assignedSupply[studentAddres];\r\n\t}\r\n\r\n\tfunction setRandomTickersAndSupply(uint256[20] memory _randomSupplies, string[20] memory _randomTickers) \r\n\tpublic \r\n\tonlyTeachers\r\n\t{\r\n\t\trandomSupplies = _randomSupplies;\r\n\t\trandomTickers = _randomTickers;\r\n\t\tnextValueStoreRank = 0;\r\n\t\tfor (uint i = 0; i < 20; i++)\r\n\t\t{\r\n\t\t\temit newRandomTickerAndSupply(randomTickers[i], randomSupplies[i]);\r\n\t\t}\r\n\t}\r\n\r\n\r\n\r\n\r\n}\r\n",
  "sourcePath": "C:\\Users\\Martin\\Documents\\GitHub\\erc20-101\\contracts\\Evaluator.sol",
  "compiler": {
    "name": "solc",
    "version": "0.6.2+commit.bacdbe57.Emscripten.clang"
  },
  "schemaVersion": "3.4.3",
  "updatedAt": "2021-11-19T17:49:32.100Z",
  "devdoc": {
    "methods": {}
  },
  "userdoc": {
    "methods": {}
  }
}